:020000040800F2
:10000000005000206D0C0008690200086B02000817
:100010006D0200086F020008710200080000000075
:100020000000000000000000000000007302000853
:10003000750200080000000077020008790200083D
:10004000B50C0008B50C0008B50C0008B50C00088C
:10005000B50C0008B50C0008B50C0008B50C00087C
:10006000B50C0008B50C0008B50C0008B50C00086C
:10007000B50C0008B50C0008B50C0008B50C00085C
:10008000B50C0008B50C0008B50C0008B50C00084C
:10009000B50C0008B50C0008B50C0008B50C00083C
:1000A000B50C0008B50C0008B50C0008B50C00082C
:1000B000B50C0008B50C0008B50C0008B50C00081C
:1000C000B50C0008B50C0008B50C0008B50C00080C
:1000D000B50C0008B50C0008B50C0008B50C0008FC
:1000E000B50C0008B50C0008B50C000800000000B5
:1000F0000000000000000000000000000000000000
:0C01000000000000000000005FF808F1A3
:10010C0010B5054C237833B9044B13B10448AFF345
:10011C0000800123237010BD0C00002000000000A3
:10012C00100D000808B5034B1BB103490348AFF38E
:10013C00008008BD0000000010000020100D000819
:10014C0030B589B000240494059406940794184B98
:10015C009A6942F010029A619A6902F010020192B7
:10016C00019A9A6942F020029A619A6902F020027F
:10017C000292029A9A6942F004029A619B6903F016
:10018C0004030393039B0B4D22464FF40051284666
:10019C0000F000FD4FF400530493012305930694E3
:1001AC000223079304A9284600F0E2FB09B030BDF6
:1001BC00001002400010014072B6FEE700B591B08D
:1001CC002822002106A800F095FD0023019302933C
:1001DC00039304930593012206924FF48033079303
:1001EC000A9202220D920E934FF4E0130F9306A87D
:1001FC0000F0D6F880B90F2301930221029100235D
:10020C0003934FF480620492059301A800F0FAFA6C
:10021C0020B911B05DF804FBFFF7CEFFFFF7CCFF60
:10022C0008B500F06FF8FFF7C9FFFFF789FF0A4C1C
:10023C0001224FF40051204600F0ACFC642000F089
:10024C0085F800224FF40051204600F0A3FC6420F6
:10025C0000F07CF8EBE700BF00100140FEE7FEE782
:10026C00FEE7FEE7FEE770477047704708B500F001
:10027C005BF808BD82B00E4B9A6942F001029A619C
:10028C009A6902F001020092009ADA6942F08052F7
:10029C00DA61DB6903F080530193019B054A5368D3
:1002AC0023F0E06343F00073536002B0704700BF6B
:1002BC00001002400000014010B504460E4B1878A7
:1002CC004FF47A73B3FBF0F30C4A1068B0FBF3F005
:1002DC0000F0B0FC68B90F2C01D901200AE0002213
:1002EC0021464FF0FF3000F06DFC054B1C600020E8
:1002FC0000E0012010BD00BF00000020080000201D
:10030C000400002008B5074A136843F0100313607B
:10031C00032000F045FC0F20FFF7CEFFFFF7AAFFEC
:10032C00002008BD00200240034A1168034B1B78D3
:10033C000B441360704700BF280000200000002011
:10034C00014B1868704700BF2800002038B50446E0
:10035C00FFF7F6FF0546B4F1FF3F02D0044B1B78C4
:10036C001C44FFF7EDFF401BA042FAD338BD00BF81
:10037C000000002082B0084B1B68084AA2FB032334
:10038C005B0A00FB03F3019300BF019B5A1E019211
:10039C00002BF9D102B0704708000020D34D621039
:1003AC00002800F0F18170B582B00446036813F0A8
:1003BC00010F2CD0994B5B6803F00C03042B1DD060
:1003CC00964B5B6803F00C03082B12D06368B3F5F3
:1003DC00803F41D0002B55D103F1804303F504330A
:1003EC001A6822F480321A601A6822F480221A6089
:1003FC0037E08A4B5B6813F4803FE7D0874B1B6870
:10040C0013F4003F03D06368002B00F0BF81236816
:10041C0013F0020F75D0814B5B6813F00C0F5FD09B
:10042C007E4B5B6803F00C03082B54D02369002B24
:10043C0000F08A807A4B01221A60FFF781FF054693
:10044C00764B1B6813F0020F75D1FFF779FF401B39
:10045C000228F5D903209EE1704A136843F48033D7
:10046C001360636843B3FFF76BFF05466B4B1B6868
:10047C0013F4003FCBD1FFF763FF401B6428F5D981
:10048C00032088E1B3F5A02F09D0644B1A6822F43D
:10049C0080321A601A6822F480221A60E1E703F1B4
:1004AC008043A3F53C331A6842F480221A601A6820
:1004BC0042F480321A60D4E7FFF742FF0546574BEF
:1004CC001B6813F4003FA2D0FFF73AFF401B6428CF
:1004DC00F5D903205FE1514B5B6813F4803FA5D144
:1004EC004E4B1B6813F0020F03D02369012B40F015
:1004FC004F814A4A136823F0F803616943EAC10348
:10050C001360236813F0080F33D0A369002B5CD061
:10051C00434B0122C3F88024FFF712FF05463F4BE3
:10052C005B6A13F0020F21D1FFF70AFF401B022870
:10053C00F5D903202FE1394A136823F0F8036169D8
:10054C0043EAC1031360DCE7354B00221A60FFF766
:10055C00F7FE0546314B1B6813F0020FD1D0FFF7A5
:10056C00EFFE401B0228F5D9032014E10120FFF710
:10057C0001FF236813F0040F00F09680274BDB6912
:10058C0013F0805F34D1254BDA6942F08052DA6186
:10059C00DB6903F080530193019B0125214B1B6800
:1005AC0013F4807F26D0E368012B3DD0002B53D170
:1005BC0003F1804303F504331A6A22F001021A6234
:1005CC001A6A22F004021A6233E0154B0022C3F8B7
:1005DC008024FFF7B5FE0546104B5B6A13F0020F43
:1005EC00C7D0FFF7ADFE401B0228F5D90320D2E09F
:1005FC000025D3E70B4A136843F480731360FFF7AD
:10060C009FFE0646074B1B6813F4807FCBD1FFF788
:10061C0097FE801B6428F5D90320BCE00010024033
:10062C0000004242007000405F4A136A43F001032D
:10063C001362E36833B3FFF783FE06465A4B1B6A1B
:10064C0013F0020F2FD1FFF77BFE801B41F2883392
:10065C009842F3D903209EE0052B09D0524B1A6A1D
:10066C0022F001021A621A6A22F004021A62E0E70E
:10067C004D4B1A6A42F004021A621A6A42F00102E5
:10068C001A62D6E7FFF75CFE0646474B1B6A13F06F
:10069C00020F08D0FFF754FE801B41F288339842BA
:1006AC00F3D9032077E0E5B9E369002B72D03E4A19
:1006BC00526802F00C02082A56D0022B17D03B4B82
:1006CC0000221A66FFF73CFE0446374B1B6813F0FA
:1006DC00007F47D0FFF734FE001B0228F5D903201A
:1006EC0059E0314AD36923F08053D361DCE72F4BB7
:1006FC0000221A66FFF724FE05462B4B1B6813F0ED
:10070C00007F06D0FFF71CFE401B0228F5D9032002
:10071C0041E0236AB3F5803F1AD023494B6823F498
:10072C007413226A606A024313434B601F4B01220D
:10073C001A66FFF705FE04461B4B1B6813F0007F7F
:10074C000ED1FFF7FDFD001B0228F5D9032022E096
:10075C00154A536823F40033A1680B435360DCE75C
:10076C00002018E0002016E0012B16D00E4B5B6821
:10077C0003F48031226A914211D103F47013626A3E
:10078C0093420ED1002006E001207047012002E0C8
:10079C00012000E0002002B070BD0120FBE7012029
:1007AC00F9E70120F7E700BF0010024000004242C9
:1007BC000F4B5B6803F00C02082A01D00D48704700
:1007CC00C3F383420C49885C13F4803F0BD0084B75
:1007DC005B68C3F34043094AD35C064A02FB00F052
:1007EC00B0FBF3F07047064B03FB00F0704700BF03
:1007FC000010024000127A00280D0008380D000885
:10080C0000093D00002800F0A08070B50D4604469C
:10081C00524B1B6803F007038B420BD24F4A1368F1
:10082C0023F007030B431360136803F007038B4299
:10083C0040F08D80236813F0020F17D013F0040FD3
:10084C0004D0474A536843F4E0635360236813F0C1
:10085C00080F04D0424A536843F460535360404A33
:10086C00536823F0F003A1680B435360236813F023
:10087C00010F31D06368012B20D0022B25D0384AD0
:10088C00126812F0020F64D035494A6822F0030254
:10089C0013434B60FFF754FD0646314B5B6803F086
:1008AC000C036268B3EB820F16D0FFF749FD801B77
:1008BC0041F288339842F0D9032045E0284A126867
:1008CC0012F4003FE0D101203EE0254A126812F0FC
:1008DC00007FD9D1012037E0204B1B6803F00703C0
:1008EC00AB420AD91D4A136823F007032B4313604C
:1008FC00136803F00703AB422DD1236813F0040FE8
:10090C0006D0174A536823F4E063E1680B43536045
:10091C00236813F0080F07D0114A536823F460536F
:10092C00216943EAC1035360FFF742FF0C4B5B683C
:10093C00C3F303130B4AD35CD8400B4B18600B4B1F
:10094C001868FFF7B9FC002070BD0120704701202A
:10095C00FAE70120F8E70120F6E700BF002002408B
:10096C00001002403C0D000808000020040000208C
:10097C0070B582B00024A446A6E0804DAA4210D0E7
:10098C0007D97F4DAA420CD005F58035AA4208D074
:10099C0013E0A5F58015AA4203D005F57025AA42EF
:1009AC0007D18A68002A58D0012A51D04361082403
:1009BC0003E0A5F58015AA42F3D0BEF1FF0F4ED887
:1009CC000646BEF1FF0F4CD84FEA8C0233680F2558
:1009DC00954023EA050304FA02F2134333604B6893
:1009EC0013F0805F6ED0674B9A6942F001029A61F6
:1009FC009B6903F001030193019B4FEA9C02951C38
:100A0C00614B53F825600CF003039D000F23AB40A2
:100A1C0026EA03065D4B984229D003F58063984281
:100A2C0000F08E8003F58063984200F08B8003F514
:100A3C008063984219D004231AE0CC68BDE7CC68D7
:100A4C000434BAE7CC680834B7E7CC680C34B4E7A4
:100A5C0003610824B1E70024AFE70424ADE7061DC9
:100A6C00AFE7ACF108029200B0E7032300E00023EB
:100A7C00AB4033430232444D45F822304B6813F4FB
:100A8C00801F61D0424A936843EA0E0393604B681F
:100A9C0013F4001F5ED03E4AD36843EA0E03D360C2
:100AAC004B6813F4003F5BD0394A536843EA0E039A
:100ABC0053604B6813F4803F58D0354A136843EAAF
:100ACC000E0313600CF1010C0A6832FA0CF353D0CC
:100ADC00012303FA0CF302EA030E33EA0202F1D10A
:100AEC004A68122A3FF649AF122A3FF666AF01A5B3
:100AFC0055F822F0AF090008470A0008510A00080F
:100B0C00630A0008C7090008C7090008C7090008DC
:100B1C00C7090008C7090008C7090008C709000869
:100B2C00C7090008C7090008C7090008C709000859
:100B3C00C7090008C70900084B0A0008570A000833
:100B4C00012395E7022393E7114A936823EA0E03E6
:100B5C0093609CE70E4AD36823EA0E03D3609FE7A9
:100B6C000B4A536823EA0E035360A2E7084A136842
:100B7C0023EA0E031360A5E702B070BD000022103B
:100B8C00000031100010024000000140000801403C
:100B9C00000401400AB1016170470904016170470A
:100BAC00074AD36823F4E0631B041B0C000200F417
:100BBC00E060034343F0BF6343F40033D3607047FA
:100BCC0000ED00E000B5194BDB68C3F30223C3F161
:100BDC00070CBCF1040F28BF4FF0040C03F1040EFA
:100BEC00BEF1060F18D9033B4FF0FF3E0EFA0CFC7A
:100BFC0021EA0C0199400EFA03F322EA030319438C
:100C0C0000280BDB0901C9B200F1604000F561401E
:100C1C0080F800135DF804FB0023E5E700F00F00FB
:100C2C000901C9B2024B1954F4E700BF00ED00E012
:100C3C0014ED00E00138B0F1807F0BD24FF0E023CF
:100C4C005861054AF02182F8231000209861072290
:100C5C001A6170470120704700ED00E070470000FA
:100C6C00FFF7FCFF0B480C490C4A002302E0D45858
:100C7C00C4500433C4188C42F9D3094A094C0023DC
:100C8C0001E013600432A242FBD300F00FF8FFF72F
:100C9C00C7FA7047000000200C000020540D00081B
:100CAC000C0000202C000020FEE7000070B5002690
:100CBC000C4D0D4C641BA410A64209D100F022F877
:100CCC0000260A4D0A4C641BA410A64205D170BD27
:100CDC0055F8043B98470136EEE755F8043B984726
:100CEC000136F2E74C0D00084C0D00084C0D0008C5
:100CFC00500D000803460244934200D1704703F89C
:100D0C00011BF9E7F8B500BFF8BC08BC9E4670475C
:0C0D1C00F8B500BFF8BC08BC9E4670474C
:100D280002030405060708090A0B0C0D0E0F101024
:100D3800010200000000000000000000010203049E
:040D48000607080989
:040D4C003101000869
:040D50000D01000889
:0C0D540001000000100000000024F4006A
:0400000508000C6D76
:00000001FF
